:1009EF00E4F519F51AE4FF1209A38F19E519B401FB
:1009FF0009AD1AE4FF120AE68027E519B40209E4EB
:100A0F00FF120AB68F1A8019E519B4030C051AE5FF
:100A1F001AB4FF0D751AFF8008E519B40403E4F545
:080A2F001AAF1A1208F180BD94
:100AE6008F1B8D1C120B0F7FA0120A37120B33AF10
:100AF6001B120A37120B33AF1C120A37120B3312B2
:090B06000B737F0A7E00020B55FF
:020AB6008F1B94
:100AB800E4F51C120B0F7FA0120A37120B33AF1B81
:100AC800120A37120B33120B0F7FA1120A37120BBF
:0D0AD80033E4FF120A788F1C120B73AF1C61
:010AE50022EE
:100B0F00D2A07F017E00120BD3D2A17F017E0012F3
:100B1F000BD3C2A07F017E00120BD3C2A17F017E37
:040B2F0000020BD3E2
:100B7300C2A07F017E00120BD3D2A17F017E00129F
:0B0B83000BD3D2A07F017E00020BD339
:100B8E00C2A1C2A07F017E00120BD3D2A17F017E33
:070B9E0000120BD3C2A122DB
:100BA500C2A1D2A07F017E00120BD3D2A17F017E0C
:070BB50000120BD3C2A122C4
:100B3300E4F51DD2A17F01FE120BD330A00F051DDA
:100B4300E51DD3946440F4120B737F0122C2A17F8D
:010B530000A1
:010B5400227E
:020A37008F1D11
:100A3900E4F51EC2A1F51EE51D5480D394004004BF
:100A4900D2A08002C2A0E51D25E0F51D7F017E0030
:100A5900120BD3D2A17F017E00120BD3C2A17F0159
:0E0A69007E00120BD3051EE51EC3940840C983
:010A7700225C
:020A78008F1DD0
:100A7A00E4F51EF51FF51EC2A17F017E00120BD3FD
:100A8A00D2A1E51F25E0F51F30A002051F7F017ED8
:100A9A0000120BD3051EE51EC3940840DAE51D704B
:0B0AAA0005120BA58003120B8EAF1F7E
:010AB500221E
:030BBC0001200114
:1009A300EF6003752001E5206401702E30B109303A
:1009B300B00630B20320B3227FE87E03120BD3E4E8
:1009C300F52020B1037F012220B0037F022220B251
:1009D300037F032220B3127F042230B10C30B0090D
:0B09E30030B20630B3037520017F0026
:0109EE0022E6
:100BBF0011083F065B4F666D7D077F6F777C395E4F
:030BCF0079710039
:10088C00EFB40800504D900899F82828730208B16D
:10089C000208B50208B90208BD0208C10208C90263
:1008AC0008D10208D9D2A4800ED2A48012D2A4807E
:1008BC0016D2A4801AC2A4D2A3D2A28016C2A4D2E9
:1008CC00A3C2A2800EC2A4C2A3D2A28006C2A4C29A
:1008DC00A3C2A274082DF8E6F5807F647E00120B8B
:0508EC00D3E4F58022B9
:0208F1008F1B5B
:1008F300E4F51CF51DF51CF51DE51B75F00A84AD2B
:10090300F07F0712088CE51B75F06484E5F075F041
:100913000A84FD7F0612088CAF1B7E007C037DE8F2
:1009230012094E7E007F64CFCDCFCECCCE12094EBE
:10093300AD077F0512088C051DE51D7002051CC35C
:0A094300940AE51C6480948040AF24
:01094D002287
:0B0BD300EF1FAC0670011E4C70F622F4
:100B5500D3EF9400EE940040147D6E7C00ED1D7083
:0D0B6500011CED4C70F7EF1F70E61E80E3E1
:010B72002260
:03000000020800F3
:0C080000787FE4F6D8FD758120020847DF
:10094E00BC000BBE0029EF8DF084FFADF022E4CC8D
:10095E00F875F008EF2FFFEE33FEEC33FCEE9DEC56
:10096E00984005FCEE9DFE0FD5F0E9E4CEFD22ED9C
:10097E00F8F5F0EE8420D21CFEADF075F008EF2FE6
:10098E00FFED33FD4007985006D5F0F222C398FDD7
:05099E000FD5F0EA2274
:10080C000209EFE493A3F8E493A34003F68001F20A
:10081C0008DFF48029E493A3F85407240CC8C333ED
:10082C00C4540F4420C8834004F456800146F6DFBC
:10083C00E4800B0102040810204080900BBCE47E85
:10084C00019360BCA3FF543F30E509541FFEE493B1
:10085C00A360010ECF54C025E060A840B8E493A378
:10086C00FAE493A3F8E493A3C8C582C8CAC583CAA3
:10087C00F0A3C8C582C8CAC583CADFE9DEE780BE5B
:010BD2000022
:00000001FF
